:02000000C82A0C
:06000600000000000800EC
:0E000C00213083120313FD00FD0B0A280800AB
:10001A000F3083120313FC004730FD00FD0B132839
:0A002A00FC0B132800000000080082
:1000340083160313D01B21288312851323288312CC
:1000440085178316501B2928831205132B28831226
:1000540005178316D01A3128831285123328831288
:1000640085168316501A3928831205123B288312E9
:100074000516831645184128831205154328831253
:1000840005118515032085118316D0194C28831278
:1000940085134E288312851783165019542883120A
:1000A40005135628831205178316D0185C2883126B
:1000B40085125E28831285168316501864288312CD
:1000C4000512662883120516831645186C288312B8
:1000D40005156E28831205118515032085118316D5
:0C00E400451C76280D2077280620080017
:1000F0008316031345104F08D0001A2083164514A9
:020100000800F5
:10010200710DF80DF90D7408F8027508031C750FCE
:10011200F902F00DF10D0F30FC00710DF80DF90D23
:100122007408701C9A28F8027508031C750FF902EE
:100132009F28F80775080318750FF907F00DF10DE0
:10014200FC0B8E287018AB287408F8077508031882
:08015200750FF9070000080019
:0E015A008316031344088A004308820008003D
:10016800C628803083160313CB00D928C030CB00B3
:10017800D9289430CB00D928D430CB00D928803066
:10018800CB00D928831603134B08013A0319B52865
:100198004B08023A0319BA284B08033A0319BD2839
:1001A8004B08043A0319C028C3284C03F0004B0835
:1001B800F0077008CB007008D0001A20831645108D
:1001C800CE014E084D07840000080319F3284E0895
:1001D8004D0784000008CF007820CE0AE528451492
:0201E80008000D
:1001EA00831203137408003A031D04297508003AA0
:1001FA00031D0429FF30F0007F30F1005D298312CE
:10020A000313FD01F901F8017108700403190034A0
:10021A0071087506FA00FA1BFD09FB01F51F1A2978
:10022A00F409F509F40A0319F50AF11F2129F0095D
:10023A00F109F00A0319F10A71087504FA00FA1BA8
:10024A00362981207B184929FD1F0034F009F1095C
:10025A00F00A0319F10AF809F909F80A0319F90A5F
:10026A000034F51F4529F11B41297108F90070086E
:10027A00F800F101F0012929F101F001F00A003436
:10028A00F109F009FB0A2629F80A0319F90A740880
:10029A007802031D292975087902031D2929F90104
:1002AA00F801F00A0319F10AF11F29290000FF34A5
:0202BA0008003A
:1002BC0083160313CA010130D0001A2001308316B3
:1002CC00CB000130CC002730CD00B4208316023097
:1002DC00CB000130CC004A08243E84000008CD003D
:1002EC00B42083120518AC290430FB000C30FC0040
:1002FC003330FD00FD0B8029FC0B8029FB0B802982
:10030C000000000005188B2988290430FB000C30F4
:10031C00FC003330FD00FD0B9129FC0B9129FB0BEC
:10032C0091290000000083164A08013EF000F101FB
:10033C000318F10A0330F4000030F500F5207808BA
:10034C00F0007908F10070088316CA008312851832
:10035C00D2290430FB000C30FC003330FD00FD0BC7
:10036C00B529FC0BB529FB0BB5290000000085183D
:10037C00C029BD290430FB000C30FC003330FD00DB
:10038C00FD0BC629FC0BC629FB0BC629000000007F
:0C039C0083164A08F000D3296C290800E1
:1003A800013083160313D0001A2001308316CB00C6
:1003B8000130CC003730CD00B4200230CB00013002
:1003C800CC002330CD00B4203330FB00BB30FC0020
:1003D800DF30FD00FD0BEE29FC0BEE29FB0BEE29AF
:0603E80000000000080007
:1003EE008316031385110511051285120513851346
:1003FE0083128511051185130513851205120D2023
:10040E000D200D20851605168515032085110D204E
:10041E008515032085110D208515032085110D20CE
:10042E0005128515032085110D20851503208511D4
:10043E00851285178515032085110D208513051648
:10044E0085150320851105128515032085110D20B4
:10045E0085150320851105168515032085110D20A0
:10046E0005128515032085118517051785160516A6
:0E047E008515032085110D20831645140800F6
:10048C0083160313CA010130D0001A2001308316E1
:10049C00CB000130CC004630CD00B42083160230A6
:1004AC00CB000130CC004A08423E84000008CD004D
:1004BC00B42083120518942A0430FB000C30FC0085
:1004CC003330FD00FD0B682AFC0B682AFB0B682AF5
:1004DC00000000000518732A702A0430FB000C3051
:1004EC00FC003330FD00FD0B792AFC0B792AFB0B49
:1004FC00792A0000000083164A08013EF000F10141
:10050C000318F10A0430F4000030F500F5207808E7
:10051C00F0007908F10070088316CA008312851860
:10052C00BA2A0430FB000C30FC003330FD00FD0B0C
:10053C009D2AFC0B9D2AFB0B9D2A000000008518B0
:10054C00A82AA52A0430FB000C30FC003330FD0037
:10055C00FD0BAE2AFC0BAE2AFB0BAE2A00000000F2
:0C056C0083164A08F000BB2A542A08003D
:10057800AD208A110A128000840AC30A0319C40A2A
:08058800F003031DBC2A08006A
:10059000B4230730831203139F00033083168500B2
:1005A000860183128601F7210130D0001A200C3019
:1005B0008316D0001A20D421462283120313700818
:1005C0008316C6005E218312031370088316C700CA
:1005D0007008203E84000008C8000130D0001A20B6
:1005E00001308316CB000130CC004608423E840027
:1005F0000008CD00B4200230CB000130CC00470809
:10060000243E84000008CD00B4204608F1000130EB
:10061000F00071080319102BF00D7010FF3E0A2B2B
:100620007008831286008316C9014808490203181E
:10063000292B0B30FB002630FC005D30FD00FD0B4C
:100640001F2BFC0B1F2BFB0B1F2B00000000C90AEC
:10065000152B831286010B30FB002630FC005D3029
:10066000FD00FD0B312BFC0B312BFB0B312B000064
:060670000000DC2A3A2B19
:1007680020308400503083120313F0004030831689
:10077800C3000330C400BC22A03084002330F00042
:0E07880090308316C3000330C400BC2208006A
:06068000033405340734C9
:0206860000343E
:0606880060346834BB344D
:10068E00543461346D3461346E3468346F342034D4
:10069E006234653462346934643461343A3400341B
:1006AE00423465346D342D34763469346E346434AA
:0606BE006F34213400340A
:0806C400A034A934B23457340C
:1006CC004534733463346F346C346834613420349F
:1006DC006F342034633468346F34703470343A348B
:0206EC000034D8
:1006EE005334203441346C3463346F346F346C348F
:0206FE000034C6
:10070000503465347134753465346E346F3400346C
:100710004D346534643469346F342034203400340B
:1007200042347234613468346D346134203420349E
:02073000003493
:1007320041347334613468346934203420342034D1
:02074200003481
:10074400493450344134203420342034203420348B
:0207540000346F
:100756004734723461346E34643465342034003482
:02400E006A2125
:00000001FF
